:02000000F429E1
:10000600103083120313FD00FD0B072800000800C3
:10001600083083120313FC002330FD00FD0B11286A
:06002600FC0B112808008C
:04002C0000000800C8
:1000300083120313BB1B1E2888131F2888173B1B22
:100040002328081324280817BB1A282888122928CF
:1000500088163B1A2D2808122E2808162218322836
:10006000081533280811881516208811BB193A285D
:1000700088133B2888173B193F2808134028081786
:10008000BB1844288812452888163B1849280812AE
:100090004A28081622184E2808154F2808118815D6
:1000A00016208811221C56280B20572803200800F0
:1000B00083120313F801F9011030FC00710DF80DE3
:1000C000F90D7408F8027508031C750FF90203187E
:1000D00070287408F80775080318750FF9070310DE
:0A00E000F00DF10DFC0B5E28080086
:1000EA008312031322103608BB00182022140800BA
:0E00FA008312031325088A00240882000800E0
:1001080083120313B90105303902031892283908FC
:100118003807840020308000B90A87283908380752
:1001280084008001B90339083807BA000A30F4009E
:10013800F5013608F0003708F10058207808F0007B
:100148007908F1003030F0073A0884007008800020
:100158000A30F400F5013608F0003708F10058209D
:100168007008B6007108B70000307106031DBE287C
:1001780000307006031DC128C328B903972808005A
:1001880083120313AE01AF012D08F2002D08F3000E
:10019800720884000008203A031DD7282E082F046F
:1001A800031DD728E4280130AE000030AF007208E4
:1001B80084000008F0007308840070088000F30AC7
:1001C8007208F100F20A710884000008003A031D61
:0801D800CC282D08F0000800FE
:1001E00083120313B201B3012D08B4002E08B50029
:1001F00080302E06F00080307002031D012900308F
:100200002D0203180F290130B2000030B3002D0871
:10021000003CB4002E08031C013EB501B5023408B1
:10022000B6003508B7002F08B80084200630B000AB
:100230000030B1003108003C031D20293008003C8B
:1002400003183B2930082F07F20001303002F0007C
:100250000030031C013E3102F10070082F078400BA
:100260000008F00072088400700880000130B002BD
:10027000031CB1031A292F088400203080003208A3
:10028000330403195929B001B10130082F07840044
:100290000008203A031D5029B00A0319B10A452964
:1002A0000130B002031CB10330082F0784002D3049
:0402B00080000800C2
:1002B4006C29803083120313AD007F29C030AD0058
:1002C4007F299430AD007F29D430AD007F29803060
:1002D400AD007F29831203132D08013A03195B290A
:1002E4002D08023A031960292D08033A03196329DA
:1002F4002D08043A0319662969292E03F0002D08F4
:10030400F0077008AD007008BB0018202210B0017F
:1003140030082F07840000080319982930082F0794
:1003240084000008B6007520B00A8A292214080047
:1003340083160313881108110812881208138813EE
:1003440083128811081188130813881208120B20CD
:100354000B200B20881608168815162088110B20F0
:100364008815162088110B208815162088110B205B
:1003740008128815162088110B208815162088115C
:10038400881288178815162088110B2088130816E0
:1003940088151620881108128815162088110B203C
:1003A40088151620881108168815162088110B2028
:1003B4000812881516208811881708178816081639
:0C03C4008815162088110B202214080058
:1003D0007D208A110A128000840AA40A0319A50A42
:0803E000F003031DE8290800E9
:1003E80083120313A001A1019A21A001A101803069
:1003F800F000803021067002031D042A2008093C01
:10040800031C292A2008AD002108AE002630AF00C1
:10041800F0202630AD00C4207008A3000130AD00E4
:100428000130AE007008AF005A210330FB000830DD
:10043800FC007730FD00FD0B1F2AFC0B1F2AFB0B6D
:0E0448001F2AA00A0319A10AFB29F9292A2A52
:02400E004A2F37
:00000001FF
