:02000000D72DFA
:0400060000000800EE
:10000A00083083120313FC002330FD00FD0B0B287C
:06001A00FC0B0B2808009E
:10002000103083120313FD00FD0B1428000008009C
:100030007B15FB1F22280130F300F201F101F001D2
:08004000FA0DF20CFF3008007C
:08004800FA1FF213003008005A
:10005000FB14FB1F3228FF30F300F200F100F00028
:08006000FA0DF20CFF3008005C
:0E006800F201F101F001F801F301003008008F
:1000760083120313E81B4128881342288817681B3C
:100086004628081347280817E81A4B2888124C28D0
:100096008816681A5028081251280816411855283B
:1000A600081556280811881503208811E8195D28B7
:1000B60088135E28881768196228081363280817AA
:1000C600E818672888126828881668186C280812A5
:1000D6006D28081641187128081572280811881508
:1000E60003208811411C792805207A281020080051
:1000F60083120313F801F9011030FC00710DF80D9D
:10010600F90D7408F8027508031C750FF902031837
:1001160093287408F80775080318750FF907031074
:0A012600F00DF10DFC0B812808001C
:10013000A0017208031DAD287108F2007008F100DB
:10014000F001A0157208031DAD287108F200F1013D
:10015000A011201672080319BB282008F302031D02
:10016000031CBF280310F21BC328F00DF10DF20D84
:10017000F30BB328BF280130FC003420C62802301E
:0E018000FC001820C6280430FC0024200800D3
:10018E007C18FD28FC18CE287C191C29C728A00134
:10019E007208031DEE287108F2007008F10078084D
:1001AE00F000F801A0157208031DEE287108F20088
:1001BE007008F100F001A01120167208031DEE2840
:1001CE007108F200F101A015720803191029200818
:1001DE00F302031D031C14290310F21BFD28F80D56
:1001EE00F00DF10DF20DF30BF42814297B1B701C8E
:1001FE001829F81F1829F00A0319F10A0319F20A2F
:10020E00031D1829F20CF10CF00CF30A03191C292A
:10021E0018290130FC0034201F290230FC00182060
:10022E001F290430FC0024201F290830FC00282040
:04023E0000000800B4
:1002420083120313E6010530660203182F2966089C
:100252006507840020308000E60A242966086507C5
:1002620084008001E60366086507E7000A30F400AF
:10027200F5016308F0006408F1007B207808F000C3
:100282007908F1003030F0076708840070088000B8
:100292000A30F400F5016308F0006408F1007B20E5
:1002A2007008E3007108E40000307106031D5B2949
:1002B20000307006031D5E296029E6033429080018
:0602C200FB15FF300800EF
:1002C8008312031341106308E8003B20411408001F
:1002D8007B14FB1F7729F201FA1FFF30F200F100AF
:0A02E800F000FA0DF20CFF300800E0
:1002F2008312031372087606A000F801F90173084D
:100302007702031C9C297708FD007308F7007D081B
:10031200F3007608FD007208F6007D08F200750809
:10032200FD007108F5007D08F1007408FD007008F9
:10033200F4007D08F00077080319152A7208FA0004
:10034200F217F61777087302F7000319CF2908305E
:100352007702031CC529F7007408F9007508F40038
:100362007608F500F60108307702031CC529F7006C
:100372007408F9007508F400F50108307702031CCF
:10038200C5297A08F200152A77080319CF29031024
:10039200F60CF50CF40CF90CF70BC829A01FDC299C
:1003A200F909F409F509F609F90A0319F40A031916
:1003B200F50A0319F60A7908F80774080318740F86
:1003C200F00775080318750FF10776080318760F02
:1003D200F207A01BF529031C052AF20CF10CF00C04
:1003E200F80CF30F052A112A0318092AF809F00953
:1003F200F109F209F80A0319F00A0319F10A0319BB
:10040200F20A8030FA060D2A0130FC00C720172AB2
:100412000230FC00C720172A0430FC009820172A5B
:100422000830FC002820172A0030FC0000000800D9
:0E043200073083120313FD00FD0B1D2A080086
:1004400083120313DB015B085A07840000080319B9
:10045000312A5B085A0784000008E3006421DB0AA4
:04046000232A080043
:10046400442A803083120313DA00572AC030DA009A
:10047400572A9430DA00572AD430DA00572A8030C9
:10048400DA00572A831203135A08013A0319332A4C
:100494005A08023A0319382A5A08033A03193B2A1C
:1004A4005A08043A03193E2A412A5B03F0005A0809
:1004B400F0077008DA007008E8003B204110DD0105
:1004C4005D085C07840000080319702A5D085C0756
:1004D40084000008E3006421DD0A622A4114080054
:1004E400C730831203139F052108F000F00D70102C
:1004F400F00D7010F00D701070089F0419221F1574
:100504001F1D862A0000822A1E08F100F0018316AE
:0A0514001E08F0040030F104080096
:10051E0083120313FB0173080319CC2A7208FA0025
:10052E00F2178E30F302F31FCF2AF309F30A0830C5
:10053E007302031CB22AF300F10D7208F100F201EE
:10054E0008307302031CB22AF300F10DF101730897
:10055E00031D0310BA2A73080319BA2A0310F20CEA
:10056E00F10CF30BB52A7B1B711CC42A031CC42A85
:10057E00F10A0319F20AF21BDB2AFA1FDE2AF2092C
:10058E00F109F10A0319F20ADE2AF201F101DE2A5B
:10059E007B14FB1FE12AF201FA1FE12AFF30F20061
:1005AE00F100FA0DF20CE12A0130FC00E32A0030D2
:1005BE00FC00E32AFF30FC00FC080319E72A6C213B
:0A05CE007108F0007208F100080047
:1005D80083120313DB01DC015A08F2005A08F30006
:1005E800720884000008203A031DFF2A5B085C0497
:1005F800031DFF2A0C2B0130DB000030DC007208E1
:1006080084000008F0007308840070088000F30A72
:100618007208F100F20A710884000008003A031D0C
:08062800F42A5A08F000080052
:10063000831203137008F8007108F000F101F20151
:10064000F301FB01FC019630F300FA01F01F2E2BA1
:10065000F809F009F80A0319F00AFA177008F1000E
:0C0660007808F000F801F2019820080072
:10066C0083120313FB017308031D770803198D2BE9
:10067C0072087606FA007708F3077E30031C4A2BC3
:10068C00F3020318902B4D2BF302031C932B7208CF
:10069C00F8007108FC007008FD00F817F61703103D
:1006AC00F201F101F0011830A0007D1C672B7408D9
:1006BC00F00775080318750FF10776080318760F05
:1006CC00F207F20CF10CF00CF80CFC0CFD0C031006
:1006DC00A00B5B2BF21B772BF80DF00DF10DF20D2F
:1006EC00F3037B1B701C892BF81F892BF00A031951
:1006FC00F10A0319F20A031D892BF20CF10CF00C10
:10070C00F30A0319902BFA1FF2130030952B0130CA
:10071C003420952B02302820952B04301820000013
:02072C000800C3
:10072E00831203137408003A031DB22B7508003AA6
:10073E00031DB22B7608003A031DB22B7708003A40
:10074E00031DB22BFF30F000FF30F1007F30F200BE
:10075E00FF30F3004D2C8312031377080319412C3D
:10076E0073080319442C720876068039FA00F217C2
:10077E00F617A0017208F8007108FC007008FD0061
:10078E007408FD027508031C750FFC027608031C25
:10079E00760FF802F801FC01FD01031CDD2B03109E
:1007AE00F20CF10CF00CF80C0130A0007708F302FB
:1007BE00031CE72B7E302007F3070318472CEC2B86
:1007CE007E302007F307031C4A2C1830FA07FD0D64
:1007DE00FC0DF80DF00DF10DF20DA00D7408F002E8
:1007EE007508031C750FF1027608031C760FF202D2
:1007FE00760DA004201C052C7D14102C7408F00717
:10080E0075080318750FF10776080318760AF207B4
:10081E007D10FA031F307A05031DEE2B7B1B7D1C0A
:10082E00372C0310F00DF10DF20DA00D7408F0022F
:10083E007508031C750FF1027608031C760FF20281
:10084E00760D20040139FD070318FC0A0319F80A76
:10085E00031D372CF80CFC0CFD0CF30A0319472C66
:10086E00FA1FF8137808F2007C08F1007D08F000FA
:10087E0000304C2C013061214C2C023034204C2C99
:0E088E00043028204C2C0830182000000800F0
:0C089C00831203138030F6067921080057
:1008A800831203137008F8007108F000F101F201D7
:1008B800F301FB01FC019630F300FA017008F10026
:0C08C8007808F000F801F2019820080008
:0E08D400831203132A088A00290882000800F4
:1008E20083120313DF01E0015A08E1005B08E20012
:1008F20080305B06F00080307002031D822C0030D5
:100902005A020318902C0130DF000030E0005A0830
:10091200003CE1005B08031C013EE201E2026108C7
:10092200E3006208E4005C08E50021210630DD00F6
:100932000030DE005E08003C031DA12C5D08003C77
:100942000318BC2C5D085C07F20001305D02F00068
:100952000030031C013E5E02F10070085C07840057
:100962000008F00072088400700880000130DD0287
:10097200031CDE039B2C5C088400203080005F088F
:1009820060040319DA2CDD01DE015D085C078400D6
:100992000008203A031DD12CDD0A0319DE0AC62CF9
:1009A2000130DD02031CDE035D085C0784002D308C
:0409B20080000800B9
:0A09B600FF308316031385000800CC
:1009C000723083120313C2000230C3002130C4000E
:1009D00000309F01C0309F0483161F179F1783129A
:0409E0001F140800D8
:1009E40083120313A101722270088312AF007108ED
:1009F400B0005424F630F4002830F5001C30F60022
:100A04008130F70036230030F4000030F500203048
:100A1400F6008230F70097237008AB007108AC0031
:100A24007208AD007308AE004730DA00EC2270089B
:100A3400B1002B08F0002C08F1002D08F2002E085C
:100A4400F3008F227008C5007108C6007008DA0030
:100A5400EC227008D6004508F0004608F10018237F
:100A64007008F4007108F5007208F6007308F700C6
:100A74002B08F0002C08F1002D08F2002E08F300DA
:100A84004E240030F4000030F5002030F6008230AF
:100A9400F70036238F227008D8007108D900700837
:100AA400DA00EC227008D7004508DA004608DB00BB
:100AB4004730DC0071244730DA00EC227008D6009D
:100AC4005808DA005908DB007008DC007124013092
:100AD400DA000130DB002630DC0032225608DA006E
:100AE40020222230DA0020223230DA002022243080
:060AF400DA0020220800D8
:100AFA008316031388110811081288120813881321
:100B0A008312881108118813081388120812052005
:100B1A000520052088160816881503208811052047
:100B2A0088150320881105208815032088110520BF
:100B3A0008128815032088110520881503208811BA
:100B4A00881288178815032088110520881308162B
:100B5A00881503208811081288150320881105209A
:100B6A008815032088110816881503208811052086
:100B7A00081288150320881188170817881608167E
:0C0B8A0088150320881105204114080084
:100B96006A248A110A128000840AA90A0319AA0A79
:080BA600F003031DCB2D080034
:100BAE002E3083120313A200A3016330A400A5010B
:100BBE005430A6003D30A700A8017D250C30E8007A
:100BCE003B20E024DB24F2240330FB000830FC0041
:100BDE007730FD00FD0BF12DFC0BF12DFB0BF12DF4
:040BEE00EA2DF82DC7
:02400E004A2F37
:00000001FF
