:02000000042FCB
:10000600103083120313FD00FD0B072800000800C3
:0400160000000800DE
:10001A00083083120313FC002330FD00FD0B132864
:06002A00FC0B1328080086
:10003000FB14FB1F2228FF30F300F200F100F00058
:08004000FA0DF20CFF3008007C
:0E004800F201F101F001F801F30100300800AF
:08005600FA1FF213003008004C
:10005E007B15FB1F39280130F300F201F101F0018D
:08006E00FA0DF20CFF3008004E
:1000760083120317CD1B4228031388134428031346
:10008600881703174D1B4A28031308134C2803131C
:1000960008170317CD1A522803138812542803137E
:1000A600881603174D1A5A28031308125C280313DF
:1000B600081603173B186228031308156428031350
:1000C600081188150B2088110317CD196D28031305
:1000D60088136F280313881703174D197528031300
:1000E60008137728031308170317CD187D28031361
:1000F60088127F280313881603174D1885280313C3
:10010600081287280313081603173B188D280313B4
:1001160008158F280313081188150B20881103175B
:0C0126003B1C97280D209828032008009F
:06013200FB15FF30080080
:1001380083120313F8010830FC00700DF80D7408E1
:10014800F8020318A928F8070310F00DFC0BA128E2
:0201580008009D
:10015A00831203174B08F2007208F100F20A4C08E6
:10016A00F000CC0A700884000008F00071088400CE
:10017A00700880007108840000080319C528B12896
:06018A004B08F000080024
:10019000831203173B104B08CD003B2003173B1481
:0201A000080055
:1001A200A0017208031DE6287108F2007008F10030
:1001B200F001A0157208031DE6287108F200F10192
:1001C200A011201672080319F4282008F302031D57
:1001D200031CF8280310F21BFC28F00DF10DF20DA0
:1001E200F30BEC28F8280130FC002420FF28023011
:0E01F200FC002F20FF280430FC002B2008000A
:0E020000073083120313FD00FD0B04290800D4
:10020E0083120313FB017308031D770803195E297C
:10021E0072087606FA007708F3077E30031C1B2956
:10022E00F302031861291E29F302031C64297208C4
:10023E00F8007108FC007008FD00F817F61703109F
:10024E00F201F101F0011830A0007D1C382974086C
:10025E00F00775080318750FF10776080318760F67
:10026E00F207F20CF10CF00CF80CFC0CFD0C031068
:10027E00A00B2C29F21B4829F80DF00DF10DF20DF3
:10028E00F3037B1B701C5A29F81F5A29F00A031915
:10029E00F10A0319F20A031D5A29F20CF10CF00CA3
:1002AE00F30A03196129FA1FF2130030662901308F
:1002BE002420662902301820662904302F200000E1
:0202CE00080026
:1002D00083120313FA017308031D7A147708031DB0
:1002E000FA147A080319B429033A03197F297A18F2
:1002F0007C29F61FB229B029F21FB029B229720851
:100300008039FA00F21376088039F6137A06031959
:100310008D297A080319B029B229770873020319C5
:100320009429031CA829AC297608720203199B2979
:10033000031CA829AC29750871020319A229031C02
:10034000A829AC29740870020319B4290318AC2930
:10035000FA080319B229B029FA080319B029B229F9
:100360000314080003100800031403150800080014
:10037000C730831203139F052108F000F00D7010A1
:10038000F00D7010F00D701070089F0400211F1503
:100390001F1DCC290000C8291E08F100F00183169A
:0A03A0001E08F0040030F10408000C
:1003AA0083120317BF01C0013E08F2003E08F300A2
:1003BA00720884000008203A031DE8293F08400417
:1003CA00031DE829F5290130BF000030C00072087A
:1003DA0084000008F0007308840070088000F30AA3
:1003EA007208F100F20A710884000008003A031D3D
:0803FA00DD293E08F0000800B7
:1004020083120317C901CA013E08C5003F08C6008E
:100412004008C7004108C8004808FF3A031D1B2ACC
:100422004708FF3A031D1B2A4608FF3A031D1B2AF1
:100432004508FF3A031D252A4208CB00DA30CC00DA
:10044200AD200330F000022C0130C300C71F342A54
:1004520080304706F0007008C700C30A42088400D3
:100462002D308000C20A0030F0004806031D432AE6
:1004720070084706031D432A70084606031D432AD7
:100482004508003A031D4C2A4208CB00DE30CC005E
:10049200AD20F001022C4808FF3A031D5A2A4708F2
:1004A200003A031D5A2A4608003A031D5A2A4508F3
:1004B200003A031D642A4208CB00D630CC00AD209E
:1004C2004308F000022C0030F4000030F500003048
:1004D200F6007F30F7004508F0004608F1004708B3
:1004E200F2004808F3006821013003180030F000E0
:1004F20070080319992A03174508F0004608F1000D
:100502004708F2004808F3000030F4000030F5001C
:100512002030F6008230F700072170080317C5006B
:100522007108C6007208C7007308C800CA03642AAB
:1005320003170030F4000030F5002030F60082305E
:10054200F7004508F0004608F1004708F2004808A5
:10055200F30068210130031C0030F0007008031919
:10056200CF2A03174508F0004608F1004708F200B9
:100572004808F300CD30F400CC30F5004C30F600E2
:100582007B30F700072170080317C5007108C60009
:100592007208C7007308C800CA0A992A0317FF30F5
:1005A2004505F800FF304605F9007F304705FA009F
:1005B20000304805FB007808F4007908F5007A0855
:1005C200F6007B08F700F40DF50DF60DF70D74102B
:1005D20000304505F00000304605F10000304705C7
:1005E200F200FF304805F3007008C5007108C6002C
:1005F2007208C7007308C80074084504F000750843
:100602004604F10076084704F20077084804F30034
:100612007008C5007108C6007208C7007308C800D8
:100622007F304802F0007008C4000130C800700832
:10063200F4004508F0004608F1004708F2004808B7
:10064200F300740803192C2BF00DF10DF20DF30DCC
:100652007010FF3E232B7008C5007108C600720897
:10066200C7007308C8004808303EF0004208840002
:1006720070088000C20A80304A06F0008030013AD9
:100682007002031C4D2B8030063AF00080304A067F
:100692007002031C4D2B542B420884002E30800024
:1006A200C20A0130C9000630C4004408003A0319E6
:1006B200B22BC8014508F0004608F1004708F200D5
:1006C2004808F300F00DF10DF20DF30D7010F00D6E
:1006D200F10DF20DF30D70104508F00746080318EE
:1006E200460FF10747080318470FF2074808031897
:1006F200480FF3077008C5007108C6007208C700EA
:100702007308C8004508F0004608F1004708F200E7
:100712004808F300F00DF10DF20DF30D70107008A2
:10072200C5007108C6007208C7007308C8004808EF
:10073200303EF0004208840070088000C20A490876
:10074200003A031DB02BCA034A08003A031DB02B1E
:10075200420884002E308000C20A0130C900C4035E
:10076200562BFF30420784000008303A031DBB2B92
:10077200C203B22BFF304207840000082E3A031D49
:10078200C32BC2034A08003A0319FE2B4208840015
:1007920065308000C20A80304A06F0008030003A9C
:1007A20070020318DC2B420884002D308000C20A3C
:1007B2004A08003CCA004A08C4004A08093C031817
:1007C200EF2B0A30F4004408F0009C203030F00790
:1007D20003174208840070088000C20A0A30F4003D
:1007E2004408F0009C207808F0003030F00703172E
:1007F2004208840070088000C20A42088400800116
:04080200F0010800F9
:10080600152C803083120317BE00282CC030BE0082
:10081600282C9430BE00282CD430BE00282C8030E2
:10082600BE00282C831203173E08013A0319042C34
:100836003E08023A0319092C3E08033A03190C2C08
:100846003E08043A03190F2C122C3F03F0003E0811
:10085600F0077008BE007008CD003B2003173B1060
:10086600C10141084007840000080319422C4108D1
:10087600400784000008CB00C820C10A342C3B1472
:02088600080068
:10088800831203137408003A031D5F2C7508003A9D
:10089800031D5F2C7608003A031D5F2C7708003A89
:1008A800031D5F2CFF30F000FF30F1007F30F200B5
:1008B800FF30F300FA2C8312031377080319EE2C88
:1008C80073080319F12C720876068039FA00F217BA
:1008D800F617A0017208F8007108FC007008FD0006
:1008E8007408FD027508031C750FFC027608031CCA
:1008F800760FF802F801FC01FD01031C8A2C031095
:10090800F20CF10CF00CF80C0130A0007708F3029F
:10091800031C942C7E302007F3070318F42C992C21
:100928007E302007F307031CF72C1830FA07FD0D5B
:10093800FC0DF80DF00DF10DF20DA00D7408F0028C
:100948007508031C750FF1027608031C760FF20276
:10095800760DA004201CB22C7D14BD2C7408F00761
:1009680075080318750FF10776080318760AF20759
:100978007D10FA031F307A05031D9B2C7B1B7D1C01
:10098800E42C0310F00DF10DF20DA00D7408F00227
:100998007508031C750FF1027608031C760FF20226
:1009A800760D20040139FD070318FC0A0319F80A1B
:1009B800031DE42CF80CFC0CFD0CF30A0319F42CB1
:1009C800FA1FF8137808F2007C08F1007D08F0009F
:1009D8000030F92C01309920F92C02302420F92C10
:0E09E80004301820F92C08302F2000000800E1
:1009F600831203137008F8007108F000F101F20188
:100A0600F301FB01FC019630F300FA017008F100D6
:0C0A16007808F000F801F201D12008007F
:100A2200013083120317CD003B2001300317BE00B3
:0C0A32000130BF005E30C000032408004B
:0A0A3E00831203130610861008004F
:0A0A48008312031386100614080041
:100A520083120313A101B821700883120317B10096
:100A62007108B200FB242208F4002308F5002408D0
:100A7200F6002508F700072170080317B300710874
:100A8200B4007208B5007308B6000030F4000030FC
:100A9200F5007A30F6008830F70044247008031716
:100AA200B3007108B4007208B5007308B6000130D3
:060AB200CD003B2008000E
:100AB800013083120317CD003B2001300317BE001D
:0C0AC8000130BF004430C00003240800CF
:100AD400013083120317CD003B2001300317BE0001
:0C0AE4000130BF00A030C0000324080057
:100AF000013083120317CD003B2001300317BE00E5
:0C0B00000130BF00B430C0000324080026
:100B0C00831203173308BE003408BF003508C00039
:100B1C003608C1002230C20001222230BE00D5218D
:100B2C007008B7000230BE000130BF007008C00072
:100B3C0003240330FB000830FC007730FD00FD0B74
:0C0B4C00A52DFC0BA52DFB0BA52D080012
:0A0B58008312031306108614080030
:100B620083120313861EBB2D1F255C25861EBA2DFC
:100B7200B72DC42D0317061EC42D11252925862540
:080B8200061EC42DC12D080060
:100B8A00013083120317CD003B2001300317BE004A
:100B9A000130BF001230C00003240230BE00013011
:0A0BAA00BF004F30C0000324080014
:100BB40083120313861EE42DAC256A25861EE32DBD
:100BC400E02DEC2D0317061EEC2D1F255C25061EBB
:060BD400EC2DE92D0800E4
:100BDA0083120313861EF72D24257825861EF62DEB
:100BEA00F32DFF2D0317061EFF2DAC256A25061EC1
:060BFA00FF2DFC2D080098
:100C0000013083120317CD003B2001300317BE00D3
:100C10000130BF00C730C00003240230BE000130E5
:0A0C2000BF00E030C000032408000C
:100C2A00013083120317CD003B2001300317BE00A9
:100C3A000130BF002630C00003240230BE0001305C
:0A0C4A00BF003530C000032408008D
:100C54000030831203171106031D322E00301006D4
:100C6400031D362E0026ED2500301106031D3C2EF3
:100C740001301006031D402EC525DA25003011066B
:100C8400031D462E02301006031D4A2E1526B125DB
:020C9400080056
:0E0C9600831203173D088A003C088200080004
:100CA40083120313861F682E003003171106031DD9
:100CB4005D2E003010060319682E01309002031CCB
:100CC40091032A26861F672E642E7A2E0317061F89
:100CD4007A2E00301106031D712E023010060319FE
:100CE4007A2E900A0319910A2A26061F7A2E772E45
:040CF400522E080074
:100CF8001F250C300317CD003B2001300317CD0012
:0C0D08003B200317900191010026080019
:100D140083160313861706178616061686150610FD
:080D24008610FF308500080075
:100D2C0083160313881108110812881208138813EC
:100D3C0083128811081188130813881208120D20C9
:100D4C000D200D208816081688150B2088110D20F3
:100D5C0088150B2088110D2088150B2088110D206B
:100D6C00081288150B2088110D2088150B2088116E
:100D7C008812881788150B2088110D2088130816E7
:100D8C0088150B208811081288150B2088110D204E
:100D9C0088150B208811081688150B2088110D203A
:100DAC00081288150B208811881708178816081642
:0E0DBC0088150B2088110D2003173B1408002A
:100DCA004B268A110A128000840ABC0A0319BD0A3A
:080DDA00F003031DE52E0800E3
:100DE200B83083120317B8000130B9002130BA00BD
:100DF200003003139F01C0309F0483161F179F17F3
:060E020083121F1408001A
:100E08008A1500208A119626F1268A267C265226E3
:020E18000C2F9D
:10100000223084003C3083120313F0004C3003176D
:10101000BC000730BD008A11E5268A15A030840087
:1010200014308312F00088300317BC000730BD0075
:101030008A11E5268A155E30840012308312F00092
:10104000AE300317BC000730BD008A11E5268A15B3
:10105000B43084003C308312F00010300317BC0021
:101060000730BD008A11E5268A15103083178400E9
:1010700012308312F0009C300317BC000730BD0013
:0A1080008A11E5268A158313080083
:100E20004D346F3474346F347234203472346F3410
:100E30007434613474346534733420344C34653420
:060E400066347434003436
:100E460031342D3420344D346F3474346F3472346D
:0E0E560020346C346534663474342E34003429
:080E640049344E3446340034D9
:080E6C004E3461344E340034B1
:040E740030340034E2
:100E780032342D3420344D346F3474346F3472343A
:100E88002034723469346734683474342E3400344E
:080E9800F63428341C348134C7
:100EA00033342D3420344D346F3474346F34723411
:0E0EB0002034733474346F3470342E340034B4
:100EBE0034342D342034543465346D347034653408
:0E0ECE00723461347434753472346534003417
:100EDC004D346F3474346F3472342034533474346E
:060EEC006F347034003485
:100EF20033342D3420344D346F3474346F347234BF
:0E0F02002034733474346F3470342E34003461
:100F10004D346F3474346F347234203472346F341F
:100F20007434613474346534733420345234693425
:080F30006734683474340034A6
:040F3800003400344D
:100F3C0032342D3420344D346F3474346F34723475
:100F4C002034723469346734683474342E34003489
:100F5C004D346F3474346F347234203454346534FB
:100F6C006D34703465347234613474347534723465
:040F7C0065340034A4
:02400E004A2F37
:00000001FF
