:020000004D2889
:080006008312031386140800A5
:0E000E008312031321088A00200882000800D4
:08001C00831203138610080093
:08002400831203130614080007
:08002C00831203130610080003
:1000340083120313861F24280E201220861F2328D0
:1000440020282B28061F2B2816200320061F2B28C8
:040054002828080050
:1000580007208A110A128000840AA00A0319A10A3B
:08006800F003031D2C28080021
:0600700016200E2008001E
:1000760083120313861E442816200E20861E44284B
:040086004128080005
:10008A0083160313861706178616061086100800AD
:0C009A00452038201A203B204F28522817
:02400E004A2F37
:00000001FF
