:020000004D2889
:080006008312031386140800A5
:08000E0083120313061408001D
:0E0016008312031321088A00200882000800CC
:0800240083120313861008008B
:08002C00831203130610080003
:0600340016201220080056
:10003A0083160313861706178616061086100800FD
:10004A000B208A110A128000840AA00A0319A10A45
:08005A00F003031D2528080036
:1000620083120313861F3B2812200720861F3A287B
:1000720037284228061F422816200320061F42283E
:040082003F2808000B
:1000860083120313861E4C2816201220861E4C2827
:0400960049280800ED
:0C009A001D201A20312043204F2852283E
:02400E004A2F37
:00000001FF
