:02000000442892
:020006000800F0
:08000800831203130614080023
:0E0010008312031322088A00210882000800D0
:02001E000800D8
:0800200083120313061008000F
:1000280083120313061F23282008003A031D2328E0
:10003800A00A0F200420061F22281F282F28061F89
:100048002F282008013A031D2F28A0031020032081
:08005800061F2F282C280800C8
:0600600010200F20080033
:1000660008208A110A128000840AA10A0319A20A2A
:08007600F003031D332808000C
:0A007E00831603130617061008008E
:1000880083120313A0013F203020142049284B2855
:02400E004A2F37
:00000001FF
