:020000008C284A
:0E0006008312031323088A00220882000800D8
:1000140003208A110A128000840AA20A0319A30A7F
:08002400F003031D0A28080087
:08002C0083160313860108008E
:1000340083120313A801A901A801A901803029068C
:10004400F00080307002031D2928083028020318AC
:10005400512802302806F0002908F1000030F1068A
:1000640070082002F0007108031C013E2102F10017
:100074007008A0007108A100700886000230FB001F
:100084000430FC00BA30FD00FD0B4628FC0B46286A
:10009400FB0B46280000A80A0319A90A2028080017
:0800A40083120313860108001A
:1000AC0083120313A801A901A801A9018030290614
:1000BC00F00080307002031D6528083028020318F8
:1000CC008B2802302806F0002908F1000030F106D8
:1000DC002008F00721080318013EF1077008A00062
:1000EC007108A100700886000230FB000430FC008F
:1000FC00BA30FD00FD0B8028FC0B8028FB0B802800
:0C010C000000A80A0319A90A5C280800DA
:1001180083120313A001A101A401A501A601A7014F
:1001280016205220A401A50180302506F000803059
:100138007002031DA128023024020318A728A40A6C
:100148000319A50A98288601A601A7018030270669
:10015800F00080307002031DB32802302602031815
:10016800BD2856201A20A001A101A60A0319A70A32
:06017800AA289628BE280B
:02400E004A2F37
:00000001FF
