:02000000902846
:100006008312031320088700AA01AB010330FB000B
:100016000830FC007730FD00FD0B0F28FC0B0F2885
:06002600FB0B0F2808008F
:10002C00831203132A08203E840000088700033043
:10003C00FB000830FC007730FD00FD0B2328FC0B87
:08004C002328FB0B2328080008
:10005400831203132A08203E84000008870003301B
:10006400FB000830FC007730FD00FD0B3728FC0B4B
:080074003728FB0B37280800B8
:0E007C00831203132D088A002C08820008004E
:08008A0083160313870108002F
:1000920083120313861F5D2800302B06031D53288D
:1000A20009302A0603195D28AA0A0319AB0A2A2075
:1000B200861F5C2859288228061F7C2800302B06C0
:1000C200031D652800302A0603197C2800302B0600
:1000D200031D6D2800302A06031D73280A30AA006A
:1000E2000030AB000130AA02031CAB031620061F2E
:1000F2007B2878288228861E82280320061F8228D1
:060102007F2849280800D7
:100108003E208A110A128000840AAC0A0319AD0A3B
:08011800F003031D8428080018
:10012000FC3083120313A0006030A100DA30A2007B
:10013000F230A3006630A400B630A500BE30A600A1
:10014000E030A700FE30A800F630A900AA01AB01FC
:08015000032045204920AB28E3
:02400E004A2F37
:00000001FF
