:020000003F2897
:0E0006008312031321088A00200882000800DC
:08001400831203138614080097
:08001C00831203130610080013
:08002400831203130614080007
:08002C00831203138610080083
:10003400831203138617861F2228122016202728CE
:0E0044000617061F27280A200E201A2808007B
:1000520003208A110A128000840AA00A0319A10A45
:08006200F003031D292808002A
:06006A000E201620080024
:0E007000831603138617061706108610080065
:0A007E00382035201A2041284328BD
:02400E004A2F37
:00000001FF
