:02000000962F39
:10000600103083120313FD00FD0B072800000800C3
:0400160000000800DE
:10001A00083083120313FC002330FD00FD0B132864
:06002A00FC0B1328080086
:100030007B15FB1F22280130F300F201F101F001D2
:08004000FA0DF20CFF3008007C
:0E004800F201F101F001F801F30100300800AF
:08005600FA1FF213003008004C
:10005E00FB14FB1F3928FF30F300F200F100F00013
:08006E00FA0DF20CFF3008004E
:1000760083120317DE1B4228031388134428031335
:10008600881703175E1B4A28031308134C2803130B
:1000960008170317DE1A522803138812542803136D
:1000A600881603175E1A5A28031308125C280313CE
:1000B60008166F18602808156128081188150B2086
:1000C60088110317DE196A28031388136C28031393
:1000D600881703175E19722803130813742803136D
:1000E60008170317DE187A28031388127C280313CF
:1000F600881603175E188228031308128428031330
:1001060008166F18882808158928081188150B20E5
:0E01160088116F1C90280D20912803200800EE
:1001240083120313F801F9011030FC00710DF80D6E
:10013400F90D7408F8027508031C750FF902031809
:10014400AA287408F80775080318750FF90703102F
:0A015400F00DF10DFC0B98280800D7
:10015E00A0017208031DC4287108F2007008F10096
:10016E00F001A0157208031DC4287108F200F101F8
:10017E00A011201672080319D2282008F302031DBD
:10018E00031CD6280310F21BDA28F00DF10DF20D28
:10019E00F30BCA28D6280130FC002420DD280230BB
:0E01AE00FC001820DD280430FC002B20080087
:1001BC007C181429FC18E5287C193329DE28A001A9
:1001CC007208031D05297108F2007008F100780807
:1001DC00F000F801A0157208031D05297108F20042
:1001EC007008F100F001A01120167208031D0529FA
:1001FC007108F200F101A0157208031927292008D3
:10020C00F302031D031C2B290310F21B1429F80DF8
:10021C00F00DF10DF20DF30B0B292B297B1B701C30
:10022C002F29F81F2F29F00A0319F10A0319F20AD2
:10023C00031D2F29F20CF10CF00CF30A03193329CE
:10024C002F290130FC00242036290230FC00182014
:10025C0036290430FC002B2036290830FC002F20D6
:04026C000000080086
:10027000831203136F1003175D08DE003B206F1419
:02028000080074
:100282005329803083120317D8006629C030D80062
:1002920066299430D8006629D430D8006629803087
:1002A200D8006629831203175808013A0319422914
:1002B2005808023A031947295808033A03194A29E8
:1002C2005808043A03194D2950295903F0005808D7
:1002D200F0077008D8007008DE003B206F1003178B
:1002E200DB015B085A0784000008031981295B08B7
:1002F2005A0784000008DD0038210317DB0A72293F
:0603020003136F14080054
:1003080083120317DB0105305B02031892295B088F
:100318005A07840020308000DB0A87295B085A07C7
:1003280084008001DB035B085A07DC000A30F40014
:10033800F5015808F0005908F10092207808F000FB
:100348007908F1003030F00703175C088400700862
:1003580080000A30F400F5015808F0005908F1004F
:10036800922070080317D8007108D9000030710670
:10037800031DC02900307006031DC329C529DB03EE
:0403880097290800A9
:10038C008312031372087606A000F801F9017308B2
:10039C007702031CE9297708FD007308F7007D0834
:1003AC00F3007608FD007208F6007D08F20075086F
:1003BC00FD007108F5007D08F1007408FD0070085F
:1003CC00F4007D08F00077080319622A7208FA001D
:1003DC00F217F61777087302F70003191C2A083076
:1003EC007702031C122AF7007408F9007508F40050
:1003FC007608F500F60108307702031C122AF70084
:10040C007408F9007508F400F50108307702031C34
:10041C00122A7A08F200622A770803191C2A0310A0
:10042C00F60CF50CF40CF90CF70B152AA01F292A65
:10043C00F909F409F509F609F90A0319F40A03197B
:10044C00F50A0319F60A7908F80774080318740FEB
:10045C00F00775080318750FF10776080318760F67
:10046C00F207A01B422A031C522AF20CF10CF00CCE
:10047C00F80CF30F522A5E2A0318562AF809F009D1
:10048C00F109F209F80A0319F00A0319F10A031920
:10049C00F20A8030FA065A2A0130FC00DE20642A67
:1004AC000230FC00DE20642A0430FC00AF20642AF9
:1004BC000830FC002F20642A0030FC0000000800EB
:0E04CC00073083120313FD00FD0B6A2A08009F
:0604DA00FB15FF300800D5
:1004E0007B14FB1F7B2AF201FA1FFF30F200F100A0
:0A04F000F000FA0DF20CFF300800D6
:1004FA00C730831203139F052108F000F00D701016
:10050A00F00D7010F00D701070089F0466221F1510
:10051A001F1D912A00008D2A1E08F100F001831682
:0A052A001E08F0040030F104080080
:1005340083120317D001D1014F08F2004F08F300D2
:10054400720884000008203A031DAD2A50085104A3
:10055400031DAD2ABA2A0130D0000030D100720840
:1005640084000008F0007308840070088000F30A17
:100574007208F100F20A710884000008003A031DB1
:08058400A22A4F08F000080054
:10058C0083120317D00150084F0784000008031989
:10059C00D82A50084F0784000008DD0038210317C3
:0605AC00D00AC92A080074
:1005B200831203137008F8007108F000F101F201D0
:1005C200F301FB01FC019630F300FA017008F1001F
:0C05D2007808F000F801F201AF200800EA
:1005DE00013083120317DE003B2001300317D800D1
:1005EE000130D9005830DA00412102300317D8000B
:0C05FE000130D900A030DA0041210800D3
:10060A0083120317D401D5014F08D6005008D7002A
:10061A0080305006F00080307002031D162B003027
:10062A004F020318242B0130D4000030D5004F08A4
:10063A00003CD6005008031C013ED701D7025608D9
:10064A00D8005708D9005108DA0084210630D200B0
:10065A000030D3005308003C031D352B5208003CE0
:10066A000318502B52085107F20001305202F000D1
:10067A000030031C013E5302F10070085107840048
:10068A000008F00072088400700880000130D2026D
:10069A00031CD3032F2B51088400203080005408F8
:1006AA00550403196E2BD201D30152085107840055
:1006BA000008203A031D652BD20A0319D30A5A2BC4
:1006CA000130D202031CD3035208510784002D3093
:0406DA008000080094
:1006DE0083120313FB0173080319AC2B7208FA0083
:1006EE00F2178E30F302F31FAF2BF309F30A083023
:1006FE007302031C922BF300F10D7208F100F2014C
:10070E0008307302031C922BF300F10DF1017308F4
:10071E00031D03109A2B730803199A2B0310F20C66
:10072E00F10CF30B952B7B1B711CA42B031CA42B20
:10073E00F10A0319F20AF21BBB2BFA1FBE2BF209A8
:10074E00F109F10A0319F20ABE2BF201F101BE2BD7
:10075E007B14FB1FC12BF201FA1FC12BFF30F200DD
:10076E00F100FA0DF20CC12B0130FC00C32B00304E
:10077E00FC00C32BFF30FC00FC080319C72B7022B2
:0A078E007108F0007208F100080085
:10079800013083120317DE003B2001300317D80015
:1007A8000130D9003A30DA00412102300317D8006D
:0C07B8000130D9004930DA00412108006E
:1007C400831203137008F8007108F000F101F201BC
:1007D400F301FB01FC019630F300FA01F01FF82B42
:1007E400F809F009F80A0319F00AFA177008F10079
:0C07F4007808F000F801F201AF200800C6
:1008000083120313FB017308031D77080319572C88
:1008100072087606FA007708F3077E30031C142C62
:10082000F30203185A2C172CF302031C5D2C7208D8
:10083000F8007108FC007008FD00F817F6170310A7
:10084000F201F101F0011830A0007D1C312C740878
:10085000F00775080318750FF10776080318760F6F
:10086000F207F20CF10CF00CF80CFC0CFD0C031070
:10087000A00B252CF21B412CF80DF00DF10DF20D03
:10088000F3037B1B701C532CF81F532CF00A031925
:10089000F10A0319F20A031D532CF20CF10CF00CAF
:1008A000F30A03195A2CFA1FF21300305F2C01309F
:1008B00024205F2C02302F205F2C043018200000F1
:0208C00008002E
:1008C200831203137408003A031D7C2C7508003A46
:1008D200031D7C2C7608003A031D7C2C7708003A15
:1008E200031D7C2CFF30F000FF30F1007F30F2005E
:1008F200FF30F300172D83120313770803190B2D12
:10090200730803190E2D720876068039FA00F21761
:10091200F617A0017208F8007108FC007008FD00CB
:100922007408FD027508031C750FFC027608031C8F
:10093200760FF802F801FC01FD01031CA72C03103D
:10094200F20CF10CF00CF80C0130A0007708F30265
:10095200031CB12C7E302007F3070318112DB62C8F
:100962007E302007F307031C142D1830FA07FD0D03
:10097200FC0DF80DF00DF10DF20DA00D7408F00252
:100982007508031C750FF1027608031C760FF2023C
:10099200760DA004201CCF2C7D14DA2C7408F007ED
:1009A20075080318750FF10776080318760AF2071F
:1009B2007D10FA031F307A05031DB82C7B1B7D1CAA
:1009C200012D0310F00DF10DF20DA00D7408F002CF
:1009D2007508031C750FF1027608031C760FF202EC
:1009E200760D20040139FD070318FC0A0319F80AE1
:1009F200031D012DF80CFC0CFD0CF30A0319112D3B
:100A0200FA1FF8137808F2007C08F1007D08F00064
:100A12000030162D01306D22162D02302420162DA5
:0E0A220004302F20162D083018200000080088
:0C0A3000831203138030F606C621080074
:100A3C00013083120317DE003B2001300317D8006E
:100A4C000130D900CF30DA00412102300317D80031
:0C0A5C000130D900DE30DA004121080032
:0A0A68008312031386100614080021
:100A7200013083120317DE003B2001300317D80038
:0C0A82000130D900AF30DA00412108003B
:0A0A8E0083120313061086140800FB
:100A9800013083120317DE003B2001300317D80012
:0C0AA8000130D9001030DA0041210800B4
:100AB40083120313A1017D22700883120317C2005D
:100AC4007108C300D9228930F4004130F5001C308C
:100AD400F6008130F70000240030F4000030F50007
:100AE4002030F6008230F700612470080317CB0031
:100AF4007108CC007208CD007308CE004B08C40006
:100B04004C08C5004D08C6004E08C7004B08F0004D
:100B14004C08F1004D08F2004E08F3006F237008F2
:100B2400EA007108EB00E2237008F4007108F50094
:100B34007208F6007308F70003174B08F0004C081E
:100B4400F1004D08F2004E08F30018250030F400BF
:100B54000030F5002030F6008230F70000246F23C7
:100B640070088316EE007108EF0083126A080317F9
:100B7400CF0003136B080317D0003230D1000523D4
:100B84003230CF009A227008C100831603136E0816
:100B940083120317CF00831603136F0883120317FE
:100BA400D0002330D10005232330CF009A227008CF
:040BB400C80008006D
:100BB800013083120317DE003B2001300317D800F1
:0C0BC8000130D9002F30DA004121080074
:100BD4000030831203136906031DF22D00306806EA
:100BE400031DF52D1E2500306906031DFB2D013064
:100BF4006806031DFE2DEF2200306906031D042E36
:0C0C040002306806031D072ECC230800F8
:100C1000013083120317DE003B2001300317D80098
:100C20000130D900C330DA00412102300317D80067
:100C30000130D9002430DA00412102300317D800F6
:100C40000430D9003230DA00412122300317CF00BE
:100C5000C6222330CF00C6222730CF00C62208008C
:0A0C6000831203130610861008002B
:100C6A000030831203136906031D3D2E0030680607
:100C7A00031D4A2E861E4A2E34254C25861E462ED4
:100C8A00432E0530E8000030E90000306906031DF4
:100C9A00502E00306806031D5D2E061E5D2E472568
:100CAA003925061E592E562E0530E8000030E90077
:100CBA0000306906031D632E01306806031D702E7D
:100CCA00861E702E47253925861E6C2E692E053004
:100CDA00E8000030E90000306906031D762E013075
:100CEA006806031D832E061E832E3026DC25061E6B
:100CFA007F2E7C2E0530E8000030E90000306906BE
:100D0A00031D892E02306806031D962E861E962E16
:100D1A003026DC25861E922E8F2E0530E800003004
:100D2A00E90000306906031D9C2E02306806031D87
:100D3A00AB2E061EAB2E30265A250826861EA62E58
:0E0D4A00A32E05300313E8000030E900080076
:100D580083120313861DBA2E01300317DE003B20D1
:0E0D6800E801E9011E25861DBA2EB72E0800EF
:100D76005A258030F000803003136B067002031D85
:100D8600C62E6A081E3C0318DC2E30260530E80005
:100D96000030E90083168601013083120317DE0056
:100DA6003B2001300317D8000130D9002930DA0082
:040DB60041210800CF
:100DBA0083120313861FF22E00306906031DE72EE5
:100DCA00003068060319F22E0130E802031CE90319
:100DDA00EA25861FF12EEE2E032F061F032F003061
:100DEA006906031DFA2E023068060319032FE80A62
:0E0DFA000319E90AEA25061F032F002F08003F
:0E0E0800831203174A088A0049088200080076
:0C0E1600DD263526AC26BB260B2F08007D
:100E220030260C300317DE003B2001300317DE00B2
:0A0E32003B20E801E9011E2508003D
:100E3C0083160313861706178616061686150610D4
:080E4C008610FF30850008004C
:100E540083160313881108110812881208138813C3
:100E640083128811081188130813881208120D20A0
:100E74000D200D208816081688150B2088110D20CA
:100E840088150B2088110D2088150B2088110D2042
:100E9400081288150B2088110D2088150B20881145
:100EA4008812881788150B2088110D2088130816BE
:100EB40088150B208811081288150B2088110D2025
:100EC40088150B208811081688150B2088110D2011
:100ED400081288150B208811881708178816081619
:0C0EE40088150B2088110D206F140800E9
:100EF00004278A110A128000840AC90A0319CA0A3F
:080F0000F003031D782F080027
:100F08007D3083120313EC000230ED002130EE0037
:100F180000309F01C0309F0483161F179F1783124C
:040F28001F1408008A
:100F2C008A154E208A112A2784271E2711270B2762
:020F3C009E2FE6
:10109C0022308400463083120313F000A230031771
:1010AC00C9000730CA008A1178278A15A03084003D
:1010BC000F30F0003F300317C9000830CA008A1106
:1010CC0078278A15683084000230F000FB30031753
:1010DC00C9000730CA008A1178278A15AF308400FE
:1010EC003F30F00000300317C9000830CA008A11E5
:1010FC0078278A151030831784001330F000E830FD
:10110C000317C9000730CA008A1178278A15831380
:02111C000800C9
:040F44002E34003413
:060F480054343D34003476
:040F4E0063340034D4
:0C0F52004534523452344F3452340034D1
:100F5E004D346F3474346F347234203453347434EB
:060F6E006F347034003402
:100F740033342D3420344D346F3474346F3472343C
:0E0F84002034733474346F3470342E340034DF
:100F920034342D342034743465346D347034653413
:0E0FA200723461347434753472346534003442
:100FB00032342D3420344D346F3474346F34723401
:100FC0002034723469346734683474342E34003415
:100FD0004D346F3474346F347234203472346F345F
:100FE0007434613474346534733420344C3465346F
:060FF00066347434003485
:040FF600003400348F
:101000004D346F3474346F347234203472346F342E
:101010007434613474346534733420345234693434
:081020006734683474340034B5
:101028004D346F3474346F3472342034543465342E
:081038006D347034653400349E
:1010400031342D3420344D346F3474346F34723471
:0E10500020346C346534663474342E3400342D
:10105E0032342D3420344D346F3474346F34723452
:10106E002034723469346734683474342E34003466
:10107E0033342D3420344D346F3474346F34723431
:0E108E002034733474346F3470342E340034D4
:02400E004A2F37
:00000001FF
