:020000006B286B
:0E000600831203132D088A002C0882000800C4
:1000140003208A110A128000840AAC0A0319AD0A6B
:08002400F003031D0A28080087
:08002C00831203138701080091
:10003400093083120313A0000030A1008030210690
:10004400F00080307002031D292800302002031CB8
:1000540041282008223E8400000887000330FB006A
:100064000830FC007730FD00FD0B3628FC0B3628E9
:10007400FB0B36280130A002031CA1032028080032
:08008400831603138701080035
:10008C0083120313A001A1018030F00080302106FF
:10009C007002031D53282008093C031C6A28200801
:1000AC00223E8400000887000330FB000830FC006F
:1000BC007730FD00FD0B6028FC0B6028FB0B6028E3
:0A00CC00A00A0319A10A4A2808003F
:1000D60083120313A001A101FC30A2006030A3002B
:1000E600DA30A400F230A5006630A600B630A700CC
:1000F600BE30A800E030A900FE30AA00F630AB0002
:0C0106001620422046201A208528882858
:02400E004A2F37
:00000001FF
