:020000003A289C
:08000600831203130614080025
:0E000E008312031322088A00210882000800D2
:08001C00831203130610080013
:1000240007208A110A128000840AA10A0319A20A6D
:08003400F003031D122808006F
:04003C000E2008008A
:1000400083120313861F2B282008003A031D2B2838
:10005000A00A03203328861F33282008013A031DF5
:0A0060003328A0030E20202808001A
:0A006A008316031386170610080022
:1000740083120313A00135201E2020203F2841288D
:02400E004A2F37
:00000001FF
