:02000000BC2D15
:10000600103083120313FD00FD0B072800000800C3
:10001600083083120313FC002330FD00FD0B11286A
:06002600FC0B112808008C
:04002C0000000800C8
:1000300083120313DB1B1E2888131F2888175B1BE2
:100040002328081324280817DB1A282888122928AF
:1000500088165B1A2D2808122E2808163B183228FD
:10006000081533280811881516208811DB193A283D
:1000700088133B2888175B193F2808134028081766
:10008000DB1844288812452888165B18492808126E
:100090004A2808163B184E2808154F2808118815BD
:1000A000162088113B1C56280B20572803200800D7
:0E00B000F201F101F001F801F3010030080047
:1000BE00FB14FB1F6928FF30F300F200F100F00083
:0800CE00FA0DF20CFF300800EE
:1000D6007B15FB1F75280130F300F201F101F001D9
:0800E600FA0DF20CFF300800D6
:1000EE0083120313FA017308031D7A147708031D94
:1000FE00FA147A080319C328033A03198E287A18BA
:10010E008B28F61FC128BF28F21FBF28C1287208EE
:10011E008039FA00F21376088039F6137A0603193D
:10012E009C287A080319BF28C1287708730203197F
:10013E00A328031CB728BB28760872020319AA2825
:10014E00031CB728BB28750871020319B128031CBC
:10015E00B728BB28740870020319C3280318BB28DC
:10016E00FA080319C128BF28FA080319BF28C128A5
:10017E0003140800031008000314031508000800F8
:10018E00831203133B105908DB0018203B140800A0
:10019E0083120313F8010830FC00700DF80D74087B
:1001AE00F8020318DC28F8070310F00DFC0BD42816
:0201BE00080037
:1001C00083120313FB017308031D770803193729F2
:1001D00072087606FA007708F3077E30031CF428CD
:1001E000F30203183A29F728F302031C3D29720889
:1001F000F8007108FC007008FD00F817F6170310EE
:10020000F201F101F0011830A0007D1C11297408E1
:10021000F00775080318750FF10776080318760FB5
:10022000F207F20CF10CF00CF80CFC0CFD0C0310B6
:10023000A00B0529F21B2129F80DF00DF10DF20D8F
:10024000F3037B1B701C3329F81F3329F00A0319B1
:10025000F10A0319F20A031D3329F20CF10CF00C18
:10026000F30A03193A29FA1FF21300303F2901302B
:1002700058203F2902305F203F2904306B200000C6
:02028000080074
:08028200FA1FF213003008001E
:10028A00831203135908F2007208F100F20A5A089D
:10029A00F000DA0A700884000008F000710884008F
:1002AA007008800071088400000803195D29492933
:0602BA005908F0000800E5
:1002C000A0017208031D75297108F2007008F10081
:1002D000F001A0157208031D75297108F200F101E3
:1002E000A01120167208031983292008F302031DA8
:1002F000031C87290310F21B8B29F00DF10DF20D61
:10030000F30B7B2987290130FC0058208E2902300D
:0E031000FC006B208E290430FC004121080007
:10031E0083120313D701D8014C08D3004D08D40023
:10032E004E08D5004F08D6005608FF3A031DA929DE
:10033E005508FF3A031DA9295408FF3A031DA929A0
:10034E005308FF3A031DB3295008D9002630DA00AE
:10035E0045210330F000882B0130D100D51FC22972
:10036E0080305506F0007008D500D10A5008840080
:10037E002D308000D00A0030F0005606031DD12922
:10038E0070085506031DD12970085406031DD12986
:10039E005308003A031DDA295008D9002A30DA0032
:1003AE004521F001882B5608FF3A031DE829550810
:1003BE00003A031DE8295408003A031DE8295308A2
:1003CE00003A031DF2295008D9002C30DA004521DD
:1003DE005108F000882B0030F4000030F50000309A
:1003EE00F6007F30F7005308F0005408F10055086E
:1003FE00F2005608F3007720013003180030F000A9
:10040E0070080319252A5308F0005408F100550806
:10041E00F2005608F3000030F4000030F5002030F2
:10042E00F6008230F700E0207008D3007108D40087
:10043E007208D5007308D600D803F2290030F400F4
:10044E000030F5002030F6008230F7005308F0003F
:10045E005408F1005508F2005608F30077200130D9
:10046E00031C0030F00070080319582A5308F000DE
:10047E005408F1005508F2005608F300CD30F40090
:10048E00CC30F5004C30F6007B30F700E0207008E1
:10049E00D3007108D4007208D5007308D600D80AAC
:1004AE00252AFF305305F800FF305405F9007F3040
:1004BE005505FA0000305605FB007808F40079085F
:1004CE00F5007A08F6007B08F700F40DF50DF60D31
:1004DE00F70D741000305305F00000305405F10094
:1004EE0000305505F200FF305605F3007008D300BA
:1004FE007108D4007208D5007308D600740853042E
:10050E00F00075085404F10076085504F2007708DF
:10051E005604F3007008D3007108D4007208D50099
:10052E007308D6007F305602F0007008D2000130FA
:10053E00D6007008F4005308F0005408F100550876
:10054E00F2005608F30074080319B42AF00DF10DE9
:10055E00F20DF30D7010FF3EAB2A7008D300710838
:10056E00D4007208D5007308D6005608303EF0004D
:10057E005008840070088000D00A80305806F000C1
:10058E008030013A7002031CD52A8030063AF00002
:10059E00803058067002031CD52ADC2A50088400CD
:1005AE002E308000D00A0130D7000630D20052081B
:1005BE00003A03193A2BD6015308F0005408F10003
:1005CE005508F2005608F300F00DF10DF20DF30D83
:1005DE007010F00DF10DF20DF30D70105308F007C1
:1005EE0054080318540FF10755080318550FF20756
:1005FE0056080318560FF3077008D3007108D4007D
:10060E007208D5007308D6005308F0005408F100A4
:10061E005508F2005608F300F00DF10DF20DF30D32
:10062E0070107008D3007108D4007208D5007308DA
:10063E00D6005608303EF000500884007008800046
:10064E00D00A5708003A031D382BD8035808003A31
:10065E00031D382B500884002E308000D00A013044
:10066E00D700D203DE2AFF30500784000008303A4C
:10067E00031D432BD0033A2BFF3050078400000894
:10068E002E3A031D4B2BD0035808003A0319842B26
:10069E005008840065308000D00A80305806F00083
:1006AE008030003A70020318642B500884002D30FD
:1006BE008000D00A5808003CD8005808D2005808CC
:1006CE00093C0318762B0A30F4005208F000CF20B4
:1006DE003030F0075008840070088000D00A0A30CD
:1006EE00F4005208F000CF207808F0003030F00708
:1006FE005008840070088000D00A500884008001E1
:04070E00F0010800EE
:06071200FB15FF3008009A
:1007180083120313CD01CE014C08F2004C08F300FC
:10072800720884000008203A031D9F2B4D084E04D0
:10073800031D9F2BAC2B0130CD000030CE0072087A
:1007480084000008F0007308840070088000F30A31
:100758007208F100F20A710884000008003A031DCB
:08076800942B4C08F00008007E
:10077000CA2B803083120313CC00DD2BC030CC0099
:10078000DD2B9430CC00DD2BD430CC00DD2B803041
:10079000CC00DD2B831203134C08013A0319B92B4B
:1007A0004C08023A0319BE2B4C08033A0319C12B1B
:1007B0004C08043A0319C42BC72B4D03F0004C0816
:1007C000F0077008CC007008DB0018203B10CF0148
:1007D0004F084E07840000080319F62B4F084E07F8
:1007E00084000008D900C720CF0AE82B3B1408007A
:0E07F000073083120313FD00FD0BFC2B0800E5
:1007FE00831203133208CC003308CD003408CE0028
:10080E003508CF003D30D0008F213D30CC008C23F9
:10081E007008BC000130CC000130CD007008CE0055
:10082E00B8230330FB000830FC007730FD00FD0BD1
:0C083E001E2CFC0B1E2CFB0B1E2C0800BB
:10084A00831203137408003A031D402C7508003AFA
:10085A00031D402C7608003A031D402C7708003A05
:10086A00031D402CFF30F000FF30F1007F30F20012
:10087A00FF30F300DB2C8312031377080319CF2C04
:10088A0073080319D22C720876068039FA00F21717
:10089A00F617A0017208F8007108FC007008FD0044
:1008AA007408FD027508031C750FFC027608031C08
:1008BA00760FF802F801FC01FD01031C6B2C0310F2
:1008CA00F20CF10CF00CF80C0130A0007708F302DE
:1008DA00031C752C7E302007F3070318D52C7A2CBD
:1008EA007E302007F307031CD82C1830FA07FD0DB9
:1008FA00FC0DF80DF00DF10DF20DA00D7408F002CB
:10090A007508031C750FF1027608031C760FF202B4
:10091A00760DA004201C932C7D149E2C7408F007DD
:10092A0075080318750FF10776080318760AF20797
:10093A007D10FA031F307A05031D7C2C7B1B7D1C5E
:10094A00C52C0310F00DF10DF20DA00D7408F00284
:10095A007508031C750FF1027608031C760FF20264
:10096A00760D20040139FD070318FC0A0319F80A59
:10097A00031DC52CF80CFC0CFD0CF30A0319D52C2D
:10098A00FA1FF8137808F2007C08F1007D08F000DD
:10099A000030DA2C01308923DA2C02305820DA2C84
:0E09AA0004305F20DA2C08306B2000000800BB
:1009B800831203137008F8007108F000F101F201C6
:1009C800F301FB01FC019630F300FA017008F10015
:0C09D8007808F000F801F201602108002E
:0E09E4008312031331088A00300882000800D5
:1009F200C730831203139F052108F000F00D701019
:100A0200F00D7010F00D701070089F04F8231F1580
:100A12001F1D0D2D0000092D1E08F100F001831687
:0A0A22001E08F0040030F104080083
:100A2C00FF308316031385000C308312DB00182073
:020A3C000800B0
:100A3E001625A101F92470088312B6007108B700BB
:100A4E00DC242208F4002308F5002408F60025080B
:100A5E00F700E0207008B2007108B3007208B4000D
:100A6E007308B5000030F4000030F5002030F600B9
:100A7E008230F70025247008B2007108B3007208A6
:100A8E00B4007308B5000130DB001820FF23202DC1
:020A9E0008004E
:100AA000F93083120313B8000430B9002130BA00C2
:100AB00000309F01C0309F0483161F179F178312B9
:040AC0001F140800F7
:100AC400F2248A110A128000840AB00A0319B10AB6
:080AD400F003031D622D080070
:100ADC00831603138811081108128812081388133F
:100AEC0083128811081188130813881208120B201E
:100AFC000B200B20881608168815162088110B2041
:100B0C008815162088110B208815162088110B20AB
:100B1C0008128815162088110B20881516208811AC
:100B2C00881288178815162088110B208813081630
:100B3C0088151620881108128815162088110B208C
:100B4C0088151620881108168815162088110B2078
:100B5C000812881516208811881708178816081689
:0C0B6C008815162088110B203B1408008F
:0A0B7800D4256E2550251F25C02D41
:100BA800223084000E3083120313F000C630B000E8
:080BB8000530B10062250800C0
:080B8C00F63428341C348134D6
:080B94004E3461344E3400348C
:040B9C0030340034BD
:080BA00049344E3446340034A0
:02400E004A2F37
:00000001FF
